{
  "_format": "hh-sol-artifact-1",
  "contractName": "MetroAggregator",
  "sourceName": "contracts/MetroAggregator.sol",
  "abi": [
    {
      "inputs": [],
      "stateMutability": "nonpayable",
      "type": "constructor"
    },
    {
      "inputs": [
        {
          "internalType": "address",
          "name": "owner",
          "type": "address"
        }
      ],
      "name": "OwnableInvalidOwner",
      "type": "error"
    },
    {
      "inputs": [
        {
          "internalType": "address",
          "name": "account",
          "type": "address"
        }
      ],
      "name": "OwnableUnauthorizedAccount",
      "type": "error"
    },
    {
      "anonymous": false,
      "inputs": [
        {
          "indexed": true,
          "internalType": "address",
          "name": "previousOwner",
          "type": "address"
        },
        {
          "indexed": true,
          "internalType": "address",
          "name": "newOwner",
          "type": "address"
        }
      ],
      "name": "OwnershipTransferred",
      "type": "event"
    },
    {
      "inputs": [
        {
          "internalType": "address",
          "name": "",
          "type": "address"
        }
      ],
      "name": "conversionRate",
      "outputs": [
        {
          "internalType": "uint256",
          "name": "",
          "type": "uint256"
        }
      ],
      "stateMutability": "view",
      "type": "function"
    },
    {
      "inputs": [
        {
          "internalType": "uint256",
          "name": "amount",
          "type": "uint256"
        },
        {
          "internalType": "address",
          "name": "token_address",
          "type": "address"
        }
      ],
      "name": "lockMetroToken",
      "outputs": [],
      "stateMutability": "nonpayable",
      "type": "function"
    },
    {
      "inputs": [],
      "name": "owner",
      "outputs": [
        {
          "internalType": "address",
          "name": "",
          "type": "address"
        }
      ],
      "stateMutability": "view",
      "type": "function"
    },
    {
      "inputs": [
        {
          "internalType": "uint256",
          "name": "amount",
          "type": "uint256"
        },
        {
          "internalType": "address",
          "name": "redemption_token",
          "type": "address"
        }
      ],
      "name": "redeemMetroToken",
      "outputs": [],
      "stateMutability": "nonpayable",
      "type": "function"
    },
    {
      "inputs": [],
      "name": "renounceOwnership",
      "outputs": [],
      "stateMutability": "nonpayable",
      "type": "function"
    },
    {
      "inputs": [
        {
          "internalType": "address",
          "name": "asset",
          "type": "address"
        },
        {
          "internalType": "uint256",
          "name": "rate",
          "type": "uint256"
        },
        {
          "internalType": "uint8",
          "name": "decimals",
          "type": "uint8"
        }
      ],
      "name": "setConversionRate",
      "outputs": [],
      "stateMutability": "nonpayable",
      "type": "function"
    },
    {
      "inputs": [
        {
          "internalType": "address",
          "name": "token_address",
          "type": "address"
        }
      ],
      "name": "setTFSAAddress",
      "outputs": [],
      "stateMutability": "nonpayable",
      "type": "function"
    },
    {
      "inputs": [
        {
          "internalType": "address",
          "name": "token_address",
          "type": "address"
        }
      ],
      "name": "setTreasuryAddress",
      "outputs": [],
      "stateMutability": "nonpayable",
      "type": "function"
    },
    {
      "inputs": [
        {
          "internalType": "uint256",
          "name": "amount",
          "type": "uint256"
        },
        {
          "internalType": "address",
          "name": "starting_token",
          "type": "address"
        },
        {
          "internalType": "address",
          "name": "ending_token",
          "type": "address"
        }
      ],
      "name": "swapTokens",
      "outputs": [],
      "stateMutability": "nonpayable",
      "type": "function"
    },
    {
      "inputs": [],
      "name": "tfsaAddress",
      "outputs": [
        {
          "internalType": "address",
          "name": "",
          "type": "address"
        }
      ],
      "stateMutability": "view",
      "type": "function"
    },
    {
      "inputs": [
        {
          "internalType": "address",
          "name": "newOwner",
          "type": "address"
        }
      ],
      "name": "transferOwnership",
      "outputs": [],
      "stateMutability": "nonpayable",
      "type": "function"
    },
    {
      "inputs": [],
      "name": "treasuryAddress",
      "outputs": [
        {
          "internalType": "address",
          "name": "",
          "type": "address"
        }
      ],
      "stateMutability": "view",
      "type": "function"
    }
  ],
  "bytecode": "0x60806040523480156200001157600080fd5b5033600073ffffffffffffffffffffffffffffffffffffffff168173ffffffffffffffffffffffffffffffffffffffff1603620000885760006040517f1e4fbdf70000000000000000000000000000000000000000000000000000000081526004016200007f9190620001a9565b60405180910390fd5b6200009981620000a060201b60201c565b50620001c6565b60008060009054906101000a900473ffffffffffffffffffffffffffffffffffffffff169050816000806101000a81548173ffffffffffffffffffffffffffffffffffffffff021916908373ffffffffffffffffffffffffffffffffffffffff1602179055508173ffffffffffffffffffffffffffffffffffffffff168173ffffffffffffffffffffffffffffffffffffffff167f8be0079c531659141344cd1fd0a4f28419497f9722a3daafe3b4186f6b6457e060405160405180910390a35050565b600073ffffffffffffffffffffffffffffffffffffffff82169050919050565b6000620001918262000164565b9050919050565b620001a38162000184565b82525050565b6000602082019050620001c0600083018462000198565b92915050565b6117b080620001d66000396000f3fe608060405234801561001057600080fd5b50600436106100b45760003560e01c806389d7506b1161007157806389d7506b146101515780638da5cb5b14610181578063ac2aa2c21461019f578063c5f956af146101bb578063f2fde38b146101d9578063f70d1d98146101f5576100b4565b80630964eaa1146100b95780633d870d71146100d55780634f2b739c146100f15780635fa6bb4b1461010d5780636605bfda1461012b578063715018a614610147575b600080fd5b6100d360048036038101906100ce9190610eed565b610211565b005b6100ef60048036038101906100ea9190610f2d565b610541565b005b61010b60048036038101906101069190610f93565b61058d565b005b6101156105fb565b6040516101229190610ff5565b60405180910390f35b61014560048036038101906101409190610f2d565b610621565b005b61014f61066d565b005b61016b60048036038101906101669190610f2d565b610681565b604051610178919061101f565b60405180910390f35b610189610699565b6040516101969190610ff5565b60405180910390f35b6101b960048036038101906101b49190610eed565b6106c2565b005b6101c3610a20565b6040516101d09190610ff5565b60405180910390f35b6101f360048036038101906101ee9190610f2d565b610a46565b005b61020f600480360381019061020a919061103a565b610acc565b005b6000600160008373ffffffffffffffffffffffffffffffffffffffff1673ffffffffffffffffffffffffffffffffffffffff1681526020019081526020016000205411610293576040517f08c379a000000000000000000000000000000000000000000000000000000000815260040161028a906110ea565b60405180910390fd5b81600260009054906101000a900473ffffffffffffffffffffffffffffffffffffffff1673ffffffffffffffffffffffffffffffffffffffff166370a08231336040518263ffffffff1660e01b81526004016102ef9190610ff5565b602060405180830381865afa15801561030c573d6000803e3d6000fd5b505050506040513d601f19601f82011682018060405250810190610330919061111f565b1015610371576040517f08c379a000000000000000000000000000000000000000000000000000000000815260040161036890611198565b60405180910390fd5b6000600160008373ffffffffffffffffffffffffffffffffffffffff1673ffffffffffffffffffffffffffffffffffffffff168152602001908152602001600020546064846103c091906111e7565b6103ca9190611258565b9050600260009054906101000a900473ffffffffffffffffffffffffffffffffffffffff1673ffffffffffffffffffffffffffffffffffffffff166379cc679033856040518363ffffffff1660e01b8152600401610429929190611289565b600060405180830381600087803b15801561044357600080fd5b505af1158015610457573d6000803e3d6000fd5b505050508173ffffffffffffffffffffffffffffffffffffffff166323b872dd600360009054906101000a900473ffffffffffffffffffffffffffffffffffffffff1633846040518463ffffffff1660e01b81526004016104ba939291906112b2565b6020604051808303816000875af11580156104d9573d6000803e3d6000fd5b505050506040513d601f19601f820116820180604052508101906104fd9190611321565b61053c576040517f08c379a0000000000000000000000000000000000000000000000000000000008152600401610533906113c0565b60405180910390fd5b505050565b610549610d01565b80600260006101000a81548173ffffffffffffffffffffffffffffffffffffffff021916908373ffffffffffffffffffffffffffffffffffffffff16021790555050565b610595610d01565b600081600a6105a49190611513565b836105af91906111e7565b905080600160008673ffffffffffffffffffffffffffffffffffffffff1673ffffffffffffffffffffffffffffffffffffffff1681526020019081526020016000208190555050505050565b600260009054906101000a900473ffffffffffffffffffffffffffffffffffffffff1681565b610629610d01565b80600360006101000a81548173ffffffffffffffffffffffffffffffffffffffff021916908373ffffffffffffffffffffffffffffffffffffffff16021790555050565b610675610d01565b61067f6000610d88565b565b60016020528060005260406000206000915090505481565b60008060009054906101000a900473ffffffffffffffffffffffffffffffffffffffff16905090565b6000600160008373ffffffffffffffffffffffffffffffffffffffff1673ffffffffffffffffffffffffffffffffffffffff1681526020019081526020016000205411610744576040517f08c379a000000000000000000000000000000000000000000000000000000000815260040161073b906110ea565b60405180910390fd5b818173ffffffffffffffffffffffffffffffffffffffff166370a08231336040518263ffffffff1660e01b815260040161077e9190610ff5565b602060405180830381865afa15801561079b573d6000803e3d6000fd5b505050506040513d601f19601f820116820180604052508101906107bf919061111f565b1015610800576040517f08c379a00000000000000000000000000000000000000000000000000000000081526004016107f7906115aa565b60405180910390fd5b60006064600160008473ffffffffffffffffffffffffffffffffffffffff1673ffffffffffffffffffffffffffffffffffffffff1681526020019081526020016000205461084e9190611258565b8361085991906111e7565b90508173ffffffffffffffffffffffffffffffffffffffff166323b872dd33600360009054906101000a900473ffffffffffffffffffffffffffffffffffffffff16866040518463ffffffff1660e01b81526004016108ba939291906112b2565b6020604051808303816000875af11580156108d9573d6000803e3d6000fd5b505050506040513d601f19601f820116820180604052508101906108fd9190611321565b61093c576040517f08c379a000000000000000000000000000000000000000000000000000000000815260040161093390611616565b60405180910390fd5b600260009054906101000a900473ffffffffffffffffffffffffffffffffffffffff1673ffffffffffffffffffffffffffffffffffffffff166340c10f1933836040518363ffffffff1660e01b8152600401610999929190611289565b6020604051808303816000875af11580156109b8573d6000803e3d6000fd5b505050506040513d601f19601f820116820180604052508101906109dc9190611321565b610a1b576040517f08c379a0000000000000000000000000000000000000000000000000000000008152600401610a1290611682565b60405180910390fd5b505050565b600360009054906101000a900473ffffffffffffffffffffffffffffffffffffffff1681565b610a4e610d01565b600073ffffffffffffffffffffffffffffffffffffffff168173ffffffffffffffffffffffffffffffffffffffff1603610ac05760006040517f1e4fbdf7000000000000000000000000000000000000000000000000000000008152600401610ab79190610ff5565b60405180910390fd5b610ac981610d88565b50565b6000600160008473ffffffffffffffffffffffffffffffffffffffff1673ffffffffffffffffffffffffffffffffffffffff1681526020019081526020016000205411610b4e576040517f08c379a0000000000000000000000000000000000000000000000000000000008152600401610b45906116ee565b60405180910390fd5b6000600160008373ffffffffffffffffffffffffffffffffffffffff1673ffffffffffffffffffffffffffffffffffffffff1681526020019081526020016000205411610bd0576040517f08c379a0000000000000000000000000000000000000000000000000000000008152600401610bc79061175a565b60405180910390fd5b828273ffffffffffffffffffffffffffffffffffffffff166370a08231336040518263ffffffff1660e01b8152600401610c0a9190610ff5565b602060405180830381865afa158015610c27573d6000803e3d6000fd5b505050506040513d601f19601f82011682018060405250810190610c4b919061111f565b1015610c8c576040517f08c379a0000000000000000000000000000000000000000000000000000000008152600401610c83906115aa565b60405180910390fd5b610c9683836106c2565b60006064600160008573ffffffffffffffffffffffffffffffffffffffff1673ffffffffffffffffffffffffffffffffffffffff16815260200190815260200160002054610ce49190611258565b84610cef91906111e7565b9050610cfb8183610211565b50505050565b610d09610e4c565b73ffffffffffffffffffffffffffffffffffffffff16610d27610699565b73ffffffffffffffffffffffffffffffffffffffff1614610d8657610d4a610e4c565b6040517f118cdaa7000000000000000000000000000000000000000000000000000000008152600401610d7d9190610ff5565b60405180910390fd5b565b60008060009054906101000a900473ffffffffffffffffffffffffffffffffffffffff169050816000806101000a81548173ffffffffffffffffffffffffffffffffffffffff021916908373ffffffffffffffffffffffffffffffffffffffff1602179055508173ffffffffffffffffffffffffffffffffffffffff168173ffffffffffffffffffffffffffffffffffffffff167f8be0079c531659141344cd1fd0a4f28419497f9722a3daafe3b4186f6b6457e060405160405180910390a35050565b600033905090565b600080fd5b6000819050919050565b610e6c81610e59565b8114610e7757600080fd5b50565b600081359050610e8981610e63565b92915050565b600073ffffffffffffffffffffffffffffffffffffffff82169050919050565b6000610eba82610e8f565b9050919050565b610eca81610eaf565b8114610ed557600080fd5b50565b600081359050610ee781610ec1565b92915050565b60008060408385031215610f0457610f03610e54565b5b6000610f1285828601610e7a565b9250506020610f2385828601610ed8565b9150509250929050565b600060208284031215610f4357610f42610e54565b5b6000610f5184828501610ed8565b91505092915050565b600060ff82169050919050565b610f7081610f5a565b8114610f7b57600080fd5b50565b600081359050610f8d81610f67565b92915050565b600080600060608486031215610fac57610fab610e54565b5b6000610fba86828701610ed8565b9350506020610fcb86828701610e7a565b9250506040610fdc86828701610f7e565b9150509250925092565b610fef81610eaf565b82525050565b600060208201905061100a6000830184610fe6565b92915050565b61101981610e59565b82525050565b60006020820190506110346000830184611010565b92915050565b60008060006060848603121561105357611052610e54565b5b600061106186828701610e7a565b935050602061107286828701610ed8565b925050604061108386828701610ed8565b9150509250925092565b600082825260208201905092915050565b7f496e76616c696420617373657400000000000000000000000000000000000000600082015250565b60006110d4600d8361108d565b91506110df8261109e565b602082019050919050565b60006020820190508181036000830152611103816110c7565b9050919050565b60008151905061111981610e63565b92915050565b60006020828403121561113557611134610e54565b5b60006111438482850161110a565b91505092915050565b7f4e6f7420656e6f75676820746f6b656e7320696e205446534100000000000000600082015250565b600061118260198361108d565b915061118d8261114c565b602082019050919050565b600060208201905081810360008301526111b181611175565b9050919050565b7f4e487b7100000000000000000000000000000000000000000000000000000000600052601160045260246000fd5b60006111f282610e59565b91506111fd83610e59565b925082820261120b81610e59565b91508282048414831517611222576112216111b8565b5b5092915050565b7f4e487b7100000000000000000000000000000000000000000000000000000000600052601260045260246000fd5b600061126382610e59565b915061126e83610e59565b92508261127e5761127d611229565b5b828204905092915050565b600060408201905061129e6000830185610fe6565b6112ab6020830184611010565b9392505050565b60006060820190506112c76000830186610fe6565b6112d46020830185610fe6565b6112e16040830184611010565b949350505050565b60008115159050919050565b6112fe816112e9565b811461130957600080fd5b50565b60008151905061131b816112f5565b92915050565b60006020828403121561133757611336610e54565b5b60006113458482850161130c565b91505092915050565b7f5472616e73666572206f6620726564656d7074696f6e20746f6b656e7320666160008201527f696c656400000000000000000000000000000000000000000000000000000000602082015250565b60006113aa60248361108d565b91506113b58261134e565b604082019050919050565b600060208201905081810360008301526113d98161139d565b9050919050565b60008160011c9050919050565b6000808291508390505b600185111561143757808604811115611413576114126111b8565b5b60018516156114225780820291505b8081029050611430856113e0565b94506113f7565b94509492505050565b600082611450576001905061150c565b8161145e576000905061150c565b8160018114611474576002811461147e576114ad565b600191505061150c565b60ff8411156114905761148f6111b8565b5b8360020a9150848211156114a7576114a66111b8565b5b5061150c565b5060208310610133831016604e8410600b84101617156114e25782820a9050838111156114dd576114dc6111b8565b5b61150c565b6114ef84848460016113ed565b92509050818404811115611506576115056111b8565b5b81810290505b9392505050565b600061151e82610e59565b915061152983610f5a565b92506115567fffffffffffffffffffffffffffffffffffffffffffffffffffffffffffffffff8484611440565b905092915050565b7f4e6f7420656e6f75676820746f6b656e7320696e206163636f756e7400000000600082015250565b6000611594601c8361108d565b915061159f8261155e565b602082019050919050565b600060208201905081810360008301526115c381611587565b9050919050565b7f5472616e7366657220746f207472656173757279206661696c65640000000000600082015250565b6000611600601b8361108d565b915061160b826115ca565b602082019050919050565b6000602082019050818103600083015261162f816115f3565b9050919050565b7f4d696e74696e6720746f2054465341206661696c656400000000000000000000600082015250565b600061166c60168361108d565b915061167782611636565b602082019050919050565b6000602082019050818103600083015261169b8161165f565b9050919050565b7f496e76616c6964207374617274696e6720617373657400000000000000000000600082015250565b60006116d860168361108d565b91506116e3826116a2565b602082019050919050565b60006020820190508181036000830152611707816116cb565b9050919050565b7f496e76616c696420656e64696e67206173736574000000000000000000000000600082015250565b600061174460148361108d565b915061174f8261170e565b602082019050919050565b6000602082019050818103600083015261177381611737565b905091905056fea2646970667358221220f544fee66b4db663c135a840fec3cfaa65c093d9badeec3daa29505e3ec808f564736f6c63430008140033",
  "linkReferences": {},
  "deployedLinkReferences": {}
}